S013000074657374655F34626974732E73726563A7
S11300000C9434000C9451000C9451000C94510045
S11300100C942C040C9451000C9451000C94510039
S11300200C9451000C9451000C9451000C94510008
S11300300C9451000C9451000C9451000C945100F8
S11300400C9451000C9451000C9451000C945100E8
S11300500C9451000C9451000C9451000C945100D8
S11300600C9451000C94510011241FBECFEFD8E022
S1130070DEBFCDBF11E0A0E0B1E0E6E0F9E002C0F0
S113008005900D92A03FB107D9F722E0A0EFB1E0AF
S113009001C01D92A830B207E1F70E941B040C9422
S11300A081040C940000611102C0419801C0419A7E
S11300B095B19F70282F207F922B95B90000409A0C
S11300C0000040984FE04A95F1F725B1922F9F70B8
S11300D040E1849F90011124292B25B90000409A06
S11300E0000040989FE09A95F1F7611108C08430B0
S11300F030F483EF91E00197F1F700C00000089518
S11301004198409887E893E10197F1F700C0000017
S113011085B18F70806385B90000409A00004098D3
S11301209FE09A95F1F781EE94E00197F1F700C012
S113013000000000409A000040989FE09A95F1F773
S113014082E48A95F1F700C00000409A00004098CC
S11301509FE09A95F1F785B18F70806285B90000B0
S1130160409A000040988FE08A95F1F760E088E2B9
S11301700E94530060E088E00E94530060E081E048
S11301800E94530060E08CE00E94530060E080E82D
S11301900E9453000895CF93DF93EC018881882354
S11301A039F0219661E00E94530089918111FACFC0
S11301B0DF91CF91089587EF84B983E087B91AB8A6
S11301C02A9A289829980E9480000895AF92BF9295
S11301D0CF92DF92FF920F931F93CF93DF93CDB70C
S11301E0DEB76A970FB6F894DEBF0FBECDBF85E0C9
S11301F0E8E3F1E0DE01119601900D928A95E1F7B2
S113020060E081E00E94530060E080E80E945300B7
S113021080E091E00E94CB002FE382E49FE0215034
S113022080409040E1F700C0000060E081E00E945F
S1130230530060E080E80E9453008BE091E00E944C
S1130240CB00EFE3FDE023E0E150F0402040E1F794
S113025000C000006E0186E0C80ED11C5E019AE069
S1130260A90EB11C62C060E080EC0E9453004AE019
S113027050E0BE01655F7F4FC8010E944104CE017A
S11302800B960E94CB0049991AC010161106BCF4B3
S11302900150110960E080EC0E9453004AE050E0F4
S11302A0BE01655F7F4FC8010E944104CE010B96D9
S11302B00E94CB000F2EF0E3FF2EF02DF00EEFE79F
S11302C0FAE126E0E150F0402040E1F700C00000F0
S11302D048991AC009301105BCF40F5F1F4F60E044
S11302E080EC0E9453004AE050E0BE01655F7F4FFE
S11302F0C8010E944104CE010B960E94CB000F2E30
S1130300F0E3FF2EF02DF00E3599ADCF8FE79AE193
S1130310E6E081509040E040E1F700C00000F601C3
S1130320F1926F01EA15FB0519F000E010E0ECCF43
S11303301B86FFE322E48FE0F15020408040E1F788
S113034000C00000BE016A5F7F4FCE0101960E948B
S11303503804892BC1F460E081E00E94530060E01E
S113036080E80E9453008AE191E00E94CB009FEF55
S1130370E8E0FDE39150E040F040E1F700C0000008
S11303801092F30117C060E081E00E94530060E026
S113039080E80E94530088E291E00E94CB002FEF96
S11303A088E09DE3215080409040E1F700C00000C8
S11303B00E94E6006A960FB6F894DEBF0FBECDBF6A
S11303C0DF91CF911F910F91FF90DF90CF90BF905D
S11303D0AF9008950F931F93CF93DF93CDB7DEB7FC
S11303E0A0970FB6F894DEBF0FBECDBF60E081E0EA
S11303F00E94530060E080E80E9453008DE391E086
S11304000E94CB002FE784E89EE121508040904079
S1130410E1F700C0000060E081E00E94530060E06A
S113042080E80E9453008AE491E00E94CB0060E0DF
S113043080EC0E9453004AE050E0BE016F5F7F4FA2
S113044081E090E00E944104CE0101960E94CB001D
S113045060E084EC0E9453008AE591E00E94CB00A6
S1130460359B45C001E010E0499915C002301105E3
S113047094F00150110960E080EC0E9453004AE0BE
S113048050E0BE016F5F7F4FC8010E944104CE015E
S113049001960E94CB002FE38DE093E02150804031
S11304A09040E1F700C00000489915C003361105DB
S11304B094F40F5F1F4F60E080EC0E9453004AE009
S11304C050E0BE016F5F7F4FC8010E944104CE011E
S11304D001960E94CB002FE38DE093E021508040F1
S11304E09040E1F700C000003599BECF02C001E0A2
S11304F010E02FE78AE196E0215080409040E1F738
S113050000C00000109307020093060260E081E03F
S11305100E94530060E080E80E94530083E691E06B
S11305200E94CB0060E080EC0E9453004AE050E05F
S1130530BE016F5E7F4F81E090E00E944104CE01D6
S113054041960E94CB0060E084EC0E94530080E757
S113055091E00E94CB00359B45C001E010E0499931
S113056015C00230110594F00150110960E080ECCF
S11305700E9453004AE050E0BE016F5E7F4FC80105
S11305800E944104CE0141960E94CB002FE78AE1EC
S113059096E0215080409040E1F700C00000489967
S11305A015C00831110594F40F5F1F4F60E080EC13
S11305B00E9453004AE050E0BE016F5E7F4FC801C5
S11305C00E944104CE0141960E94CB002FE78AE1AC
S11305D096E0215080409040E1F700C0000035993A
S11305E0BECF02C001E010E02FE78AE196E021507F
S11305F080409040E1F700C000001093F5010093A3
S1130600F40160E081E00E94530060E080E80E9411
S1130610530086E791E00E94CB003499FECF2FE788
S11306208AE196E0215080409040E1F700C000004C
S113063081E08093F301A0960FB6F894DEBF0FBE5D
S1130640CDBFDF91CF911F910F9108958091F30158
S1130650823009F46EC028F4882351F0813059F0B7
S11306600895833009F487C0843009F4B9C008952B
S11306700E94EA0108952091F1013091F2018091E4
S1130680F4019091F501281739077CF560E080E8C2
S11306900E94530087E891E00E94CB004AE050E0BA
S11306A066EF71E08091F1019091F2010E944104A2
S11306B060E080EC0E94530089E991E00E94CB0045
S11306C086EF91E00E94CB002A9A289829984B99AA
S11306D0B1C04D99AFC01B99ADC04A99ABC0339B13
S11306E0FECF82E08093F301089560E081E00E94F0
S11306F0530060E080E80E94530085EA91E00E9484
S1130700CB0060E080EC0E9453008EEA91E00E94EE
S1130710CB002FE784E89EE1215080409040E1F730
S113072000C000001092F2011092F1011092F30146
S1130730089560E080E80E94530089EB91E00E94F4
S1130740CB002FE38DE093E0215080409040E1F70F
S113075000C000002A9A289A299A4C996BC04E9995
S113076069C01B9967C04A9965C0339BFECF83E07B
S11307708093F30108952A98289A299A60E080E8E2
S11307800E9453008BEC91E00E94CB004C9952C024
S11307904E9950C04F994EC04A994CC0339BFECFDE
S11307A0809106029091070218161906ACF42FE303
S11307B08DE093E0215080409040E1F700C00000BC
S11307C0809106029091070201979093070280930B
S11307D00602181619065CF384E08093F301089569
S11307E02A9A289A299A60E080E80E9453008DEDA5
S11307F091E00E94CB002FE382E49FE021508040EF
S11308009040E1F700C000004C9914C04E9912C00A
S11308101B9910C04A990EC0339BFECF81E0809390
S1130820F3018091F1019091F20101969093F2010C
S11308308093F10108950E94DB000E94E600F89481
S11308408CE188B982E08093680084E080936C0036
S113085078940E942603FDCF1F920F920FB60F9239
S113086011248091F001811102C00E941B04FFCF6A
S1130870FB01DC018D91019080190110D9F3990BD2
S113088008954532510520F4423010F00C944C0484
S1130890FB011082CB010895BB274A3031F4992320
S11308A022F4BDE2909581959F4F0C945804BB2788
S11308B0FB015527AA27880F991FAA1FA41710F018
S11308C0A41B83955051B9F7A05DAA3308F0A95D24
S11308D0A193009779F7B111B1931192CB010C94C4
S11308E07104DC01FC01672F71917723E1F73297E2
S11308F004C07C916D9370836291AE17BF07C8F3F7
S10909000895F894FFCFF6
S113090642656D2076696E646F2100446967697477
S11309166520612073656E68610053656E686120A9
S1130926436F72726574610053656E686120696E07
S1130936636F7272657461003132333400436F6ED3
S113094666696775726163616F0054656D706F20C7
S1130956646520656E7661736500736567756E649C
S11309666F730054616D616E686F204C6F7465001F
S1130976706563617300535441525420702F20698B
S11309866E696369617200416775617264616E6460
S11309966F20706563612020004E756D2E205065B2
S11309A66361733A004F7065726163616F004669F3
S11309B66E616C697A616461005072656E64656E1D
S11309C6646F207065636120202000456E6368654E
S11309D66E646F2070656361202020200052657468
S11309E66F726E616E646F2E2E2E20202020000002
S9030000FC
